:02000000E129F4
:100008008B186E288C008C0E030E8D000B11061AAF
:100018003E28130994009507031C35281508820704
:1000280006160616061606160616061606160616E8
:1000380006160616061606160616061606160616D8
:1000480006160616061606160616061606160616C8
:100058000616061606160616061214091B3E810019
:100068006728163E810006161C3095000D0E830089
:100078000C0E090014099507031C6528150882074A
:1000880006120612061206120612061206120612A8
:100098000612061206120612061206120612061298
:1000A8000612061206120612061206120612061288
:1000B8000612061206120616130994001B3E81004A
:1000C8003728163E810006121D3095000D0E83005C
:1000D8000C0E09008511061186100B128B108C006E
:1000E8008C0E030E8D00970199010D0E83000C0EE6
:1000F80009008E018F01813083128800640064003A
:100108006400640091016400640064006400831268
:100118000815831208198D2809088E0703188F0AF5
:10012800910F87280F0890008E018F018930831264
:100138008800640064006400640091016400640045
:10014800640064008312081583120819A828090896
:100158008E0703188F0A910FA2280F0802218E001C
:1001680010080E078F000F080800D6301B02031C6A
:10017800C6281608963A031DC528130F930A960138
:10018800C628960AC1301B02031CD7281708963ABE
:10019800031DD628C1309A0098019901831285154C
:1001A8000B16D728970A9E301B020318EA2818084E
:1001B800963A031DE9289E309A0097019901930108
:1001C800831206120B128511EA28980A9E301B0228
:1001D800031C0129C1301B02031801291908963A8A
:1001E800031D0029B4309A009801970193018312E6
:1001F800061285150B160129990A0800920032305B
:100208001202031C0034E4301202031800343230A6
:10021800920201308A0012088207F334F434F4346D
:10022800F434F534F534F534F534F534F634F6347D
:10023800F634F634F734F734F734F734F734F8345F
:10024800F834F834F834F834F934F934F934F93442
:10025800F934F934FA34FA34FA34FA34FA34FA3428
:10026800FB34FB34FB34FB34FB34FB34FC34FC340C
:10027800FC34FC34FC34FC34FD34FD34FD34FD34F2
:10028800FD34FD34FD34FE34FE34FE34FE34FE34D9
:10029800FE34FE34FF34FF34FF34FF34FF34FF34C0
:1002A800FF34FF34003400340034003400340034A8
:1002B800003401340134013401340134013401348F
:1002C8000134023402340234023402340234023477
:1002D800023403340334033403340334033403345F
:1002E8000334043404340434043404340434043447
:1002F800053405340534053405340534053405342E
:100308000634063406340634063406340634063415
:1003180007340734073407340734073407340834FC
:1003280008340834083408340834083408340934E4
:10033800093409340934093409340A340A340A34CA
:100348000A340A340A340A340B340B340B340B34B1
:100358000B340B340C340C340C340C340C340C3497
:100368000D340D340D340D340D340E340E340E347A
:100378000E340E340F340F340F340F3410341A087F
:100388009E3A0319CE292A3A0319D229753A031934
:10039800D629D929831206158610D929831206155C
:1003A8008614D929831206118614130FDE298312A5
:1003B8000511E029831205150800133083168500FE
:1003C800E930860083128511930106160F308316D3
:1003D800810002308800A0308B008312061186103D
:0E03E800051564007D209B00B920C321F52976
:00000001FF
